{"abi":[{"type":"constructor","inputs":[{"name":"baseURI","type":"string","internalType":"string"}],"stateMutability":"nonpayable"},{"type":"function","name":"MAX_PER_WALLET","inputs":[],"outputs":[{"name":"","type":"uint256","internalType":"uint256"}],"stateMutability":"view"},{"type":"function","name":"MAX_SUPPLY","inputs":[],"outputs":[{"name":"","type":"uint256","internalType":"uint256"}],"stateMutability":"view"},{"type":"function","name":"approve","inputs":[{"name":"to","type":"address","internalType":"address"},{"name":"tokenId","type":"uint256","internalType":"uint256"}],"outputs":[],"stateMutability":"nonpayable"},{"type":"function","name":"balanceOf","inputs":[{"name":"owner","type":"address","internalType":"address"}],"outputs":[{"name":"","type":"uint256","internalType":"uint256"}],"stateMutability":"view"},{"type":"function","name":"freeMint","inputs":[],"outputs":[],"stateMutability":"nonpayable"},{"type":"function","name":"getApproved","inputs":[{"name":"tokenId","type":"uint256","internalType":"uint256"}],"outputs":[{"name":"","type":"address","internalType":"address"}],"stateMutability":"view"},{"type":"function","name":"isApprovedForAll","inputs":[{"name":"owner","type":"address","internalType":"address"},{"name":"operator","type":"address","internalType":"address"}],"outputs":[{"name":"","type":"bool","internalType":"bool"}],"stateMutability":"view"},{"type":"function","name":"mint","inputs":[{"name":"quantity","type":"uint256","internalType":"uint256"}],"outputs":[],"stateMutability":"nonpayable"},{"type":"function","name":"mintedPerWallet","inputs":[{"name":"","type":"address","internalType":"address"}],"outputs":[{"name":"","type":"uint256","internalType":"uint256"}],"stateMutability":"view"},{"type":"function","name":"name","inputs":[],"outputs":[{"name":"","type":"string","internalType":"string"}],"stateMutability":"view"},{"type":"function","name":"owner","inputs":[],"outputs":[{"name":"","type":"address","internalType":"address"}],"stateMutability":"view"},{"type":"function","name":"ownerMint","inputs":[{"name":"to","type":"address","internalType":"address"},{"name":"quantity","type":"uint256","internalType":"uint256"}],"outputs":[],"stateMutability":"nonpayable"},{"type":"function","name":"ownerOf","inputs":[{"name":"tokenId","type":"uint256","internalType":"uint256"}],"outputs":[{"name":"","type":"address","internalType":"address"}],"stateMutability":"view"},{"type":"function","name":"publicMint","inputs":[],"outputs":[],"stateMutability":"nonpayable"},{"type":"function","name":"renounceOwnership","inputs":[],"outputs":[],"stateMutability":"nonpayable"},{"type":"function","name":"safeTransferFrom","inputs":[{"name":"from","type":"address","internalType":"address"},{"name":"to","type":"address","internalType":"address"},{"name":"tokenId","type":"uint256","internalType":"uint256"}],"outputs":[],"stateMutability":"nonpayable"},{"type":"function","name":"safeTransferFrom","inputs":[{"name":"from","type":"address","internalType":"address"},{"name":"to","type":"address","internalType":"address"},{"name":"tokenId","type":"uint256","internalType":"uint256"},{"name":"data","type":"bytes","internalType":"bytes"}],"outputs":[],"stateMutability":"nonpayable"},{"type":"function","name":"setApprovalForAll","inputs":[{"name":"operator","type":"address","internalType":"address"},{"name":"approved","type":"bool","internalType":"bool"}],"outputs":[],"stateMutability":"nonpayable"},{"type":"function","name":"setBaseURI","inputs":[{"name":"baseURI","type":"string","internalType":"string"}],"outputs":[],"stateMutability":"nonpayable"},{"type":"function","name":"supportsInterface","inputs":[{"name":"interfaceId","type":"bytes4","internalType":"bytes4"}],"outputs":[{"name":"","type":"bool","internalType":"bool"}],"stateMutability":"view"},{"type":"function","name":"symbol","inputs":[],"outputs":[{"name":"","type":"string","internalType":"string"}],"stateMutability":"view"},{"type":"function","name":"tokenURI","inputs":[{"name":"tokenId","type":"uint256","internalType":"uint256"}],"outputs":[{"name":"","type":"string","internalType":"string"}],"stateMutability":"view"},{"type":"function","name":"totalSupply","inputs":[],"outputs":[{"name":"","type":"uint256","internalType":"uint256"}],"stateMutability":"view"},{"type":"function","name":"transferFrom","inputs":[{"name":"from","type":"address","internalType":"address"},{"name":"to","type":"address","internalType":"address"},{"name":"tokenId","type":"uint256","internalType":"uint256"}],"outputs":[],"stateMutability":"nonpayable"},{"type":"function","name":"transferOwnership","inputs":[{"name":"newOwner","type":"address","internalType":"address"}],"outputs":[],"stateMutability":"nonpayable"},{"type":"event","name":"Approval","inputs":[{"name":"owner","type":"address","indexed":true,"internalType":"address"},{"name":"approved","type":"address","indexed":true,"internalType":"address"},{"name":"tokenId","type":"uint256","indexed":true,"internalType":"uint256"}],"anonymous":false},{"type":"event","name":"ApprovalForAll","inputs":[{"name":"owner","type":"address","indexed":true,"internalType":"address"},{"name":"operator","type":"address","indexed":true,"internalType":"address"},{"name":"approved","type":"bool","indexed":false,"internalType":"bool"}],"anonymous":false},{"type":"event","name":"HolobotMinted","inputs":[{"name":"to","type":"address","indexed":true,"internalType":"address"},{"name":"tokenId","type":"uint256","indexed":true,"internalType":"uint256"}],"anonymous":false},{"type":"event","name":"OwnershipTransferred","inputs":[{"name":"previousOwner","type":"address","indexed":true,"internalType":"address"},{"name":"newOwner","type":"address","indexed":true,"internalType":"address"}],"anonymous":false},{"type":"event","name":"Transfer","inputs":[{"name":"from","type":"address","indexed":true,"internalType":"address"},{"name":"to","type":"address","indexed":true,"internalType":"address"},{"name":"tokenId","type":"uint256","indexed":true,"internalType":"uint256"}],"anonymous":false},{"type":"error","name":"ERC721IncorrectOwner","inputs":[{"name":"sender","type":"address","internalType":"address"},{"name":"tokenId","type":"uint256","internalType":"uint256"},{"name":"owner","type":"address","internalType":"address"}]},{"type":"error","name":"ERC721InsufficientApproval","inputs":[{"name":"operator","type":"address","internalType":"address"},{"name":"tokenId","type":"uint256","internalType":"uint256"}]},{"type":"error","name":"ERC721InvalidApprover","inputs":[{"name":"approver","type":"address","internalType":"address"}]},{"type":"error","name":"ERC721InvalidOperator","inputs":[{"name":"operator","type":"address","internalType":"address"}]},{"type":"error","name":"ERC721InvalidOwner","inputs":[{"name":"owner","type":"address","internalType":"address"}]},{"type":"error","name":"ERC721InvalidReceiver","inputs":[{"name":"receiver","type":"address","internalType":"address"}]},{"type":"error","name":"ERC721InvalidSender","inputs":[{"name":"sender","type":"address","internalType":"address"}]},{"type":"error","name":"ERC721NonexistentToken","inputs":[{"name":"tokenId","type":"uint256","internalType":"uint256"}]},{"type":"error","name":"OwnableInvalidOwner","inputs":[{"name":"owner","type":"address","internalType":"address"}]},{"type":"error","name":"OwnableUnauthorizedAccount","inputs":[{"name":"account","type":"address","internalType":"address"}]}],"bytecode":{"object":"0x608060405234801562000010575f80fd5b5060405162001a7338038062001a7383398101604081905262000033916200014d565b3360405180604001604052806007815260200166121bdb1bd89bdd60ca1b81525060405180604001604052806004815260200163121093d560e21b815250815f9081620000819190620002a7565b506001620000908282620002a7565b5050506001600160a01b038116620000c157604051631e4fbdf760e01b81525f600482015260240160405180910390fd5b620000cc81620000e8565b506008620000db8282620002a7565b505060016007556200036f565b600680546001600160a01b038381166001600160a01b0319831681179093556040519116919082907f8be0079c531659141344cd1fd0a4f28419497f9722a3daafe3b4186f6b6457e0905f90a35050565b634e487b7160e01b5f52604160045260245ffd5b5f60208083850312156200015f575f80fd5b82516001600160401b038082111562000176575f80fd5b818501915085601f8301126200018a575f80fd5b8151818111156200019f576200019f62000139565b604051601f8201601f19908116603f01168101908382118183101715620001ca57620001ca62000139565b816040528281528886848701011115620001e2575f80fd5b5f93505b82841015620002055784840186015181850187015292850192620001e6565b5f86848301015280965050505050505092915050565b600181811c908216806200023057607f821691505b6020821081036200024f57634e487b7160e01b5f52602260045260245ffd5b50919050565b601f821115620002a2575f81815260208120601f850160051c810160208610156200027d5750805b601f850160051c820191505b818110156200029e5782815560010162000289565b5050505b505050565b81516001600160401b03811115620002c357620002c362000139565b620002db81620002d484546200021b565b8462000255565b602080601f83116001811462000311575f8415620002f95750858301515b5f19600386901b1c1916600185901b1785556200029e565b5f85815260208120601f198616915b82811015620003415788860151825594840194600190910190840162000320565b50858210156200035f57878501515f19600388901b60f8161c191681555b5050505050600190811b01905550565b6116f6806200037d5f395ff3fe608060405234801561000f575f80fd5b506004361061016d575f3560e01c806355f804b3116100d957806395d89b4111610093578063b88d4fde1161006e578063b88d4fde146102f5578063c87b56dd14610308578063e985e9c51461031b578063f2fde38b1461032e575f80fd5b806395d89b41146102c7578063a0712d68146102cf578063a22cb465146102e2575f80fd5b806355f804b3146102755780635b70ea9f1461021f5780636352211e1461028857806370a082311461029b578063715018a6146102ae5780638da5cb5b146102b6575f80fd5b806323b872dd1161012a57806323b872dd1461020c57806326092b831461021f57806332cb6b0c146102275780633a602b4d1461023057806342842e0e1461024f578063484b973c14610262575f80fd5b806301ffc9a71461017157806306fdde0314610199578063081812fc146101ae578063095ea7b3146101d95780630f2cdd6c146101ee57806318160ddd14610204575b5f80fd5b61018461017f366004611169565b610341565b60405190151581526020015b60405180910390f35b6101a1610392565b60405161019091906111d8565b6101c16101bc3660046111ea565b610421565b6040516001600160a01b039091168152602001610190565b6101ec6101e736600461121c565b610448565b005b6101f6600581565b604051908152602001610190565b6101f6610457565b6101ec61021a366004611244565b61046c565b6101ec6104fa565b6101f661271081565b6101f661023e36600461127d565b60096020525f908152604090205481565b6101ec61025d366004611244565b61060f565b6101ec61027036600461121c565b61062e565b6101ec61028336600461131d565b610708565b6101c16102963660046111ea565b61071c565b6101f66102a936600461127d565b610726565b6101ec61076b565b6006546001600160a01b03166101c1565b6101a161077e565b6101ec6102dd3660046111ea565b61078d565b6101ec6102f0366004611362565b6108d9565b6101ec61030336600461139b565b6108e4565b6101a16103163660046111ea565b6108fb565b610184610329366004611412565b6109ae565b6101ec61033c36600461127d565b6109db565b5f6001600160e01b031982166380ac58cd60e01b148061037157506001600160e01b03198216635b5e139f60e01b145b8061038c57506301ffc9a760e01b6001600160e01b03198316145b92915050565b60605f80546103a090611443565b80601f01602080910402602001604051908101604052809291908181526020018280546103cc90611443565b80156104175780601f106103ee57610100808354040283529160200191610417565b820191905f5260205f20905b8154815290600101906020018083116103fa57829003601f168201915b5050505050905090565b5f61042b82610a18565b505f828152600460205260409020546001600160a01b031661038c565b610453828233610a50565b5050565b5f6001600754610467919061148f565b905090565b6001600160a01b03821661049a57604051633250574960e11b81525f60048201526024015b60405180910390fd5b5f6104a6838333610a5d565b9050836001600160a01b0316816001600160a01b0316146104f4576040516364283d7b60e01b81526001600160a01b0380861660048301526024820184905282166044820152606401610491565b50505050565b61271060075411156105435760405162461bcd60e51b815260206004820152601260248201527113585e081cdd5c1c1b1e481c995858da195960721b6044820152606401610491565b335f908152600960205260409020546005116105a15760405162461bcd60e51b815260206004820152601c60248201527f4d6178206d696e7473207065722077616c6c65742072656163686564000000006044820152606401610491565b600780549081905f6105b2836114a2565b9091555050335f9081526009602052604081208054916105d1836114a2565b91905055506105e03382610b4f565b604051819033907fe59b19bd6815fd12d13f45389e6a9a0aa211062dc860fa6f03de6f0ebab09db4905f90a350565b61062983838360405180602001604052805f8152506108e4565b505050565b610636610b68565b61271060018260075461064991906114ba565b610653919061148f565b11156106965760405162461bcd60e51b815260206004820152601260248201527145786365656473206d617820737570706c7960701b6044820152606401610491565b5f5b8181101561062957600780549081905f6106b1836114a2565b91905055506106c08482610b4f565b60405181906001600160a01b038616907fe59b19bd6815fd12d13f45389e6a9a0aa211062dc860fa6f03de6f0ebab09db4905f90a35080610700816114a2565b915050610698565b610710610b68565b6008610453828261151a565b5f61038c82610a18565b5f6001600160a01b038216610750576040516322718ad960e21b81525f6004820152602401610491565b506001600160a01b03165f9081526003602052604090205490565b610773610b68565b61077c5f610b95565b565b6060600180546103a090611443565b6127106001826007546107a091906114ba565b6107aa919061148f565b11156107ed5760405162461bcd60e51b815260206004820152601260248201527145786365656473206d617820737570706c7960701b6044820152606401610491565b335f9081526009602052604090205460059061080a9083906114ba565b11156108515760405162461bcd60e51b8152602060048201526016602482015275115e18d959591cc81b585e081c195c881dd85b1b195d60521b6044820152606401610491565b5f5b8181101561045357600780549081905f61086c836114a2565b9091555050335f90815260096020526040812080549161088b836114a2565b919050555061089a3382610b4f565b604051819033907fe59b19bd6815fd12d13f45389e6a9a0aa211062dc860fa6f03de6f0ebab09db4905f90a350806108d1816114a2565b915050610853565b610453338383610be6565b6108ef84848461046c565b6104f484848484610c84565b60605f6109078361071c565b6001600160a01b0316036109545760405162461bcd60e51b8152602060048201526014602482015273151bdad95b88191bd95cc81b9bdd08195e1a5cdd60621b6044820152606401610491565b5f6008805461096290611443565b90501161097d5760405180602001604052805f81525061038c565b600861098883610daa565b6040516020016109999291906115d6565b60405160208183030381529060405292915050565b6001600160a01b039182165f90815260056020908152604080832093909416825291909152205460ff1690565b6109e3610b68565b6001600160a01b038116610a0c57604051631e4fbdf760e01b81525f6004820152602401610491565b610a1581610b95565b50565b5f818152600260205260408120546001600160a01b03168061038c57604051637e27328960e01b815260048101849052602401610491565b6106298383836001610e3a565b5f828152600260205260408120546001600160a01b0390811690831615610a8957610a89818486610f3e565b6001600160a01b03811615610ac357610aa45f855f80610e3a565b6001600160a01b0381165f90815260036020526040902080545f190190555b6001600160a01b03851615610af1576001600160a01b0385165f908152600360205260409020805460010190555b5f8481526002602052604080822080546001600160a01b0319166001600160a01b0389811691821790925591518793918516917fddf252ad1be2c89b69c2b068fc378daa952ba7f163c4a11628f55a4df523b3ef91a4949350505050565b610453828260405180602001604052805f815250610fa2565b6006546001600160a01b0316331461077c5760405163118cdaa760e01b8152336004820152602401610491565b600680546001600160a01b038381166001600160a01b0319831681179093556040519116919082907f8be0079c531659141344cd1fd0a4f28419497f9722a3daafe3b4186f6b6457e0905f90a35050565b6001600160a01b038216610c1857604051630b61174360e31b81526001600160a01b0383166004820152602401610491565b6001600160a01b038381165f81815260056020908152604080832094871680845294825291829020805460ff191686151590811790915591519182527f17307eab39ab6107e8899845ad3d59bd9653f200f220920489ca2b5937696c31910160405180910390a3505050565b6001600160a01b0383163b156104f457604051630a85bd0160e11b81526001600160a01b0384169063150b7a0290610cc6903390889087908790600401611669565b6020604051808303815f875af1925050508015610d00575060408051601f3d908101601f19168201909252610cfd918101906116a5565b60015b610d67573d808015610d2d576040519150601f19603f3d011682016040523d82523d5f602084013e610d32565b606091505b5080515f03610d5f57604051633250574960e11b81526001600160a01b0385166004820152602401610491565b805181602001fd5b6001600160e01b03198116630a85bd0160e11b14610da357604051633250574960e11b81526001600160a01b0385166004820152602401610491565b5050505050565b60605f610db683610fb8565b60010190505f8167ffffffffffffffff811115610dd557610dd5611296565b6040519080825280601f01601f191660200182016040528015610dff576020820181803683370190505b5090508181016020015b5f19016f181899199a1a9b1b9c1cb0b131b232b360811b600a86061a8153600a8504945084610e0957509392505050565b8080610e4e57506001600160a01b03821615155b15610f0f575f610e5d84610a18565b90506001600160a01b03831615801590610e895750826001600160a01b0316816001600160a01b031614155b8015610e9c5750610e9a81846109ae565b155b15610ec55760405163a9fbf51f60e01b81526001600160a01b0384166004820152602401610491565b8115610f0d5783856001600160a01b0316826001600160a01b03167f8c5be1e5ebec7d5bd14f71427d1e84f3dd0314c0f7b2291e5b200ac8c7c3b92560405160405180910390a45b505b50505f90815260046020526040902080546001600160a01b0319166001600160a01b0392909216919091179055565b610f4983838361108f565b610629576001600160a01b038316610f7757604051637e27328960e01b815260048101829052602401610491565b60405163177e802f60e01b81526001600160a01b038316600482015260248101829052604401610491565b610fac83836110f3565b6106295f848484610c84565b5f8072184f03e93ff9f4daa797ed6e38ed64bf6a1f0160401b8310610ff65772184f03e93ff9f4daa797ed6e38ed64bf6a1f0160401b830492506040015b6d04ee2d6d415b85acef81000000008310611022576d04ee2d6d415b85acef8100000000830492506020015b662386f26fc10000831061104057662386f26fc10000830492506010015b6305f5e1008310611058576305f5e100830492506008015b612710831061106c57612710830492506004015b6064831061107e576064830492506002015b600a831061038c5760010192915050565b5f6001600160a01b038316158015906110eb5750826001600160a01b0316846001600160a01b031614806110c857506110c884846109ae565b806110eb57505f828152600460205260409020546001600160a01b038481169116145b949350505050565b6001600160a01b03821661111c57604051633250574960e11b81525f6004820152602401610491565b5f61112883835f610a5d565b90506001600160a01b03811615610629576040516339e3563760e11b81525f6004820152602401610491565b6001600160e01b031981168114610a15575f80fd5b5f60208284031215611179575f80fd5b813561118481611154565b9392505050565b5f5b838110156111a557818101518382015260200161118d565b50505f910152565b5f81518084526111c481602086016020860161118b565b601f01601f19169290920160200192915050565b602081525f61118460208301846111ad565b5f602082840312156111fa575f80fd5b5035919050565b80356001600160a01b0381168114611217575f80fd5b919050565b5f806040838503121561122d575f80fd5b61123683611201565b946020939093013593505050565b5f805f60608486031215611256575f80fd5b61125f84611201565b925061126d60208501611201565b9150604084013590509250925092565b5f6020828403121561128d575f80fd5b61118482611201565b634e487b7160e01b5f52604160045260245ffd5b5f67ffffffffffffffff808411156112c4576112c4611296565b604051601f8501601f19908116603f011681019082821181831017156112ec576112ec611296565b81604052809350858152868686011115611304575f80fd5b858560208301375f602087830101525050509392505050565b5f6020828403121561132d575f80fd5b813567ffffffffffffffff811115611343575f80fd5b8201601f81018413611353575f80fd5b6110eb848235602084016112aa565b5f8060408385031215611373575f80fd5b61137c83611201565b915060208301358015158114611390575f80fd5b809150509250929050565b5f805f80608085870312156113ae575f80fd5b6113b785611201565b93506113c560208601611201565b925060408501359150606085013567ffffffffffffffff8111156113e7575f80fd5b8501601f810187136113f7575f80fd5b611406878235602084016112aa565b91505092959194509250565b5f8060408385031215611423575f80fd5b61142c83611201565b915061143a60208401611201565b90509250929050565b600181811c9082168061145757607f821691505b60208210810361147557634e487b7160e01b5f52602260045260245ffd5b50919050565b634e487b7160e01b5f52601160045260245ffd5b8181038181111561038c5761038c61147b565b5f600182016114b3576114b361147b565b5060010190565b8082018082111561038c5761038c61147b565b601f821115610629575f81815260208120601f850160051c810160208610156114f35750805b601f850160051c820191505b81811015611512578281556001016114ff565b505050505050565b815167ffffffffffffffff81111561153457611534611296565b611548816115428454611443565b846114cd565b602080601f83116001811461157b575f84156115645750858301515b5f19600386901b1c1916600185901b178555611512565b5f85815260208120601f198616915b828110156115a95788860151825594840194600190910190840161158a565b50858210156115c657878501515f19600388901b60f8161c191681555b5050505050600190811b01905550565b5f8084546115e381611443565b600182811680156115fb57600181146116105761163c565b60ff198416875282151583028701945061163c565b885f526020805f205f5b858110156116335781548a82015290840190820161161a565b50505082870194505b50505050835161165081836020880161118b565b64173539b7b760d91b9101908152600501949350505050565b6001600160a01b03858116825284166020820152604081018390526080606082018190525f9061169b908301846111ad565b9695505050505050565b5f602082840312156116b5575f80fd5b81516111848161115456fea2646970667358221220b50acdc845d60d5b54d8409884fc2abdb2023edb2b8078114676b0ac5cd9788564736f6c63430008140033","linkReferences":{}},"methodIdentifiers":{"MAX_PER_WALLET()":"0f2cdd6c","MAX_SUPPLY()":"32cb6b0c","approve(address,uint256)":"095ea7b3","balanceOf(address)":"70a08231","freeMint()":"5b70ea9f","getApproved(uint256)":"081812fc","isApprovedForAll(address,address)":"e985e9c5","mint(uint256)":"a0712d68","mintedPerWallet(address)":"3a602b4d","name()":"06fdde03","owner()":"8da5cb5b","ownerMint(address,uint256)":"484b973c","ownerOf(uint256)":"6352211e","publicMint()":"26092b83","renounceOwnership()":"715018a6","safeTransferFrom(address,address,uint256)":"42842e0e","safeTransferFrom(address,address,uint256,bytes)":"b88d4fde","setApprovalForAll(address,bool)":"a22cb465","setBaseURI(string)":"55f804b3","supportsInterface(bytes4)":"01ffc9a7","symbol()":"95d89b41","tokenURI(uint256)":"c87b56dd","totalSupply()":"18160ddd","transferFrom(address,address,uint256)":"23b872dd","transferOwnership(address)":"f2fde38b"},"id":0}